{
  "contractName": "CryptoCoinMachine2",
  "abi": [
    {
      "inputs": [],
      "stateMutability": "payable",
      "type": "constructor",
      "payable": true
    },
    {
      "anonymous": false,
      "inputs": [
        {
          "indexed": false,
          "internalType": "bool",
          "name": "profitable",
          "type": "bool"
        },
        {
          "indexed": false,
          "internalType": "uint256",
          "name": "profitAmount",
          "type": "uint256"
        }
      ],
      "name": "earnProfits",
      "type": "event"
    },
    {
      "inputs": [],
      "name": "oracle",
      "outputs": [
        {
          "internalType": "address",
          "name": "",
          "type": "address"
        }
      ],
      "stateMutability": "view",
      "type": "function",
      "constant": true
    },
    {
      "inputs": [
        {
          "internalType": "uint256",
          "name": "",
          "type": "uint256"
        }
      ],
      "name": "outcomes",
      "outputs": [
        {
          "internalType": "uint256",
          "name": "",
          "type": "uint256"
        }
      ],
      "stateMutability": "view",
      "type": "function",
      "constant": true
    },
    {
      "inputs": [],
      "name": "initialize",
      "outputs": [],
      "stateMutability": "payable",
      "type": "function",
      "payable": true
    },
    {
      "inputs": [
        {
          "internalType": "address",
          "name": "_address",
          "type": "address"
        }
      ],
      "name": "SetOracle",
      "outputs": [],
      "stateMutability": "nonpayable",
      "type": "function"
    },
    {
      "inputs": [],
      "name": "GetOracle",
      "outputs": [
        {
          "internalType": "bytes32",
          "name": "",
          "type": "bytes32"
        }
      ],
      "stateMutability": "nonpayable",
      "type": "function"
    },
    {
      "inputs": [],
      "name": "OutcomeProcessed",
      "outputs": [],
      "stateMutability": "nonpayable",
      "type": "function"
    },
    {
      "inputs": [],
      "name": "CryptoSpinned",
      "outputs": [],
      "stateMutability": "payable",
      "type": "function",
      "payable": true
    },
    {
      "inputs": [],
      "name": "CCMachineBalance",
      "outputs": [
        {
          "internalType": "uint256",
          "name": "",
          "type": "uint256"
        }
      ],
      "stateMutability": "view",
      "type": "function",
      "constant": true
    },
    {
      "inputs": [
        {
          "internalType": "uint256",
          "name": "gamblerBalance",
          "type": "uint256"
        },
        {
          "internalType": "uint256",
          "name": "multiplier",
          "type": "uint256"
        }
      ],
      "name": "ProfitsCalculated",
      "outputs": [],
      "stateMutability": "nonpayable",
      "type": "function"
    },
    {
      "inputs": [],
      "name": "GetOutcomes",
      "outputs": [
        {
          "internalType": "uint256[]",
          "name": "",
          "type": "uint256[]"
        }
      ],
      "stateMutability": "view",
      "type": "function",
      "constant": true
    }
  ],
  "bytecode": "0x6080604052610dc2806100136000396000f3fe6080604052600436106100915760003560e01c806397a12edf1161005957806397a12edf146101a95780639d5cf50d146101d4578063d3b5d1e0146101ff578063e7a896ab14610250578063eed2a1471461025a57610091565b80631907186614610096578063440dccdd146100ad578063542536f3146100f25780637dc0d1d01461015e5780638129fc1c1461019f575b600080fd5b3480156100a257600080fd5b506100ab6102a9565b005b3480156100b957600080fd5b506100f0600480360360408110156100d057600080fd5b810190808035906020019092919080359060200190929190505050610309565b005b3480156100fe57600080fd5b506101076103be565b6040518080602001828103825283818151815260200191508051906020019060200280838360005b8381101561014a57808201518184015260208101905061012f565b505050509050019250505060405180910390f35b34801561016a57600080fd5b50610173610453565b604051808273ffffffffffffffffffffffffffffffffffffffff16815260200191505060405180910390f35b6101a7610479565b005b3480156101b557600080fd5b506101be6105cc565b6040518082815260200191505060405180910390f35b3480156101e057600080fd5b506101e961067d565b6040518082815260200191505060405180910390f35b34801561020b57600080fd5b5061024e6004803603602081101561022257600080fd5b81019080803573ffffffffffffffffffffffffffffffffffffffff169060200190929190505050610688565b005b6102586106cc565b005b34801561026657600080fd5b506102936004803603602081101561027d57600080fd5b8101908080359060200190929190505050610b08565b6040518082815260200191505060405180910390f35b6102b96102b4610b29565b610bd8565b603360003373ffffffffffffffffffffffffffffffffffffffff1673ffffffffffffffffffffffffffffffffffffffff168152602001908152602001600020906003610306929190610c80565b50565b600081830290506000600190508161031f61067d565b10156103305761032d61067d565b91505b3373ffffffffffffffffffffffffffffffffffffffff166108fc839081150290604051600060405180830381858888f19350505050158015610376573d6000803e3d6000fd5b507faf77cbf255034d71fff212065f182d9467222e243726aa604f50c8d161a21de881836040518083151581526020018281526020019250505060405180910390a150505050565b6060603360003373ffffffffffffffffffffffffffffffffffffffff1673ffffffffffffffffffffffffffffffffffffffff16815260200190815260200160002080548060200260200160405190810160405280929190818152602001828054801561044957602002820191906000526020600020905b815481526020019060010190808311610435575b5050505050905090565b603560009054906101000a900473ffffffffffffffffffffffffffffffffffffffff1681565b600060019054906101000a900460ff16806104985750610497610c69565b5b806104ae575060008054906101000a900460ff16155b610503576040517f08c379a000000000000000000000000000000000000000000000000000000000815260040180806020018281038252602e815260200180610d5f602e913960400191505060405180910390fd5b60008060019054906101000a900460ff161590508015610553576001600060016101000a81548160ff02191690831515021790555060016000806101000a81548160ff0219169083151502179055505b73a7c81b03fafe4775c3d3826f11c1f36fa07b7530603660006101000a81548173ffffffffffffffffffffffffffffffffffffffff021916908373ffffffffffffffffffffffffffffffffffffffff16021790555080156105c95760008060016101000a81548160ff0219169083151502179055505b50565b600080603560009054906101000a900473ffffffffffffffffffffffffffffffffffffffff1690508073ffffffffffffffffffffffffffffffffffffffff1663b3101acb6040518163ffffffff1660e01b8152600401602060405180830381600087803b15801561063c57600080fd5b505af1158015610650573d6000803e3d6000fd5b505050506040513d602081101561066657600080fd5b810190808051906020019092919050505091505090565b600060014701905090565b80603560006101000a81548173ffffffffffffffffffffffffffffffffffffffff021916908373ffffffffffffffffffffffffffffffffffffffff16021790555050565b670de0b6b3a76400008034101561074b576040517f08c379a00000000000000000000000000000000000000000000000000000000081526004018080602001828103825260188152602001807f4d696e696d756d207374616b652069732031206574686572000000000000000081525060200191505060405180910390fd5b60003490506000603460008154811061076057fe5b906000526020600020015490506000603460018154811061077d57fe5b906000526020600020015490506000603460028154811061079a57fe5b906000526020600020015490506034603360003373ffffffffffffffffffffffffffffffffffffffff1673ffffffffffffffffffffffffffffffffffffffff1681526020019081526020016000209080546107f6929190610ccd565b506001831480156108075750600182145b80156108135750600181145b1561082457610823846032610309565b5b600183118015610835575060048311155b80156108415750600182115b801561084e575060048211155b801561085a5750600181115b8015610867575060048111155b1561087857610877846028610309565b5b600483118015610889575060098311155b80156108955750600482115b80156108a2575060098211155b80156108ae5750600481115b80156108bb575060098111155b156108cc576108cb84601e610309565b5b6009831180156108dd575060108311155b80156108e95750600982115b80156108f6575060108211155b80156109025750600981115b801561090f575060108111155b156109205761091f846014610309565b5b601083118015610931575060198311155b801561093d5750601082115b801561094a575060198211155b80156109565750601081115b8015610963575060198111155b156109745761097384600a610309565b5b6001831480156109845750600182115b8015610991575060048211155b801561099d5750600481115b80156109aa575060098111155b156109bb576109ba846005610309565b5b6001831180156109cc575060048311155b80156109d85750600482115b80156109e5575060098211155b80156109f15750600981115b80156109fe575060108111155b15610a0f57610a0e846003610309565b5b600483118015610a20575060098311155b8015610a2c5750600982115b8015610a39575060108211155b8015610a455750601081115b8015610a52575060198111155b15610a6357610a62846002610309565b5b600983118015610a74575060108311155b8015610a805750601082115b8015610a8d575060198211155b8015610a995750600181145b15610aaa57610aa9846004610309565b5b601083118015610abb575060198311155b8015610ac75750600182145b8015610ad35750600181115b8015610ae0575060048111155b15610af557610af0846004610309565b610b01565b610b00846000610309565b5b5050505050565b60348181548110610b1557fe5b906000526020600020016000915090505481565b600080603560009054906101000a900473ffffffffffffffffffffffffffffffffffffffff1690508073ffffffffffffffffffffffffffffffffffffffff1663fd29ad0e6040518163ffffffff1660e01b815260040160206040518083038186803b158015610b9757600080fd5b505afa158015610bab573d6000803e3d6000fd5b505050506040513d6020811015610bc157600080fd5b810190808051906020019092919050505091505090565b610be0610d1f565b610be8610d1f565b610bf0610d1f565b60005b6003811015610c5e5760006127108681610c0957fe5b06905080848360038110610c1957fe5b6020020181815250506127108681610c2d57fe5b04955060178181610c3a57fe5b06838360038110610c4757fe5b602002018181525050508080600101915050610bf3565b508092505050919050565b6000803090506000813b9050600081149250505090565b828054828255906000526020600020908101928215610cbc579160200282015b82811115610cbb578251825591602001919060010190610ca0565b5b509050610cc99190610d41565b5090565b828054828255906000526020600020908101928215610d0e5760005260206000209182015b82811115610d0d578254825591600101919060010190610cf2565b5b509050610d1b9190610d41565b5090565b6040518060600160405280600390602082028036833780820191505090505090565b5b80821115610d5a576000816000905550600101610d42565b509056fe436f6e747261637420696e7374616e63652068617320616c7265616479206265656e20696e697469616c697a6564a264697066735822122077d26a823f3fde9784aaf242d49954abb59a3ef4daea0d2e40e0d8c3fc5e645364736f6c634300060c0033",
  "immutableReferences": {},
  "source": "// SPDX-License-Identifier: MIT\r\n\r\npragma solidity ^0.6.0;\r\n\r\nimport \"@openzeppelin/upgrades-core/contracts/Initializable.sol\";\r\nimport \"./Oracle.sol\";\r\n\r\ncontract CryptoCoinMachine2 is Initializable {\r\n    mapping(address => uint[]) gamblers;\r\n    uint[] public outcomes;\r\n    address public oracle;\r\n    address private owner;\r\n\r\n    function initialize() public payable initializer {\r\n        owner = 0xa7C81b03Fafe4775c3d3826f11C1f36fA07b7530;\r\n    }\r\n\r\n    constructor() public payable { }\r\n\r\n    event earnProfits(bool profitable, uint profitAmount);\r\n\r\n    modifier sufficientStake(uint _stake) {\r\n        require(msg.value >= _stake,  \"Minimum stake is 1 ether\");\r\n        _;\r\n        }\r\n\r\n    function SetOracle(address _address) public { oracle = address(_address); }\r\n    function GetOracle() public returns (bytes32) {\r\n        Oracle orc = Oracle(oracle);\r\n        return orc.GetRandomNr();\r\n    }\r\n    function GetOracleNr() internal view returns (uint) {\r\n        Oracle orc = Oracle(oracle);\r\n        return orc.GetOracleNr();\r\n    }\r\n    function OracleNrProcessed(uint nr) internal returns (uint[3] memory) {\r\n        uint[3] memory array;\r\n        uint[3] memory randomNr;\r\n        \r\n        for (uint i = 0; i < 3; i++) {\r\n            uint digit = nr % 10000;\r\n            array[i] = digit;\r\n            nr /= 10000;\r\n            randomNr[i] = digit % 23;\r\n        }\r\n        return randomNr;\r\n    }\r\n    function OutcomeProcessed() public { gamblers[msg.sender] = OracleNrProcessed(GetOracleNr()); }\r\n    \r\n    function CryptoSpinned() sufficientStake(1 ether) public payable {\r\n        uint gamblerBalance = msg.value;\r\n        \r\n        uint randomCoin1 = outcomes[0];\r\n        uint randomCoin2 = outcomes[1];\r\n        uint randomCoin3 = outcomes[2];\r\n        \r\n        gamblers[msg.sender] = outcomes;\r\n        \r\n        //Profitable outcome 1: All BTC\r\n        if (randomCoin1 == 1 &&\r\n            randomCoin2 == 1 &&\r\n            randomCoin3 == 1) {\r\n            ProfitsCalculated(gamblerBalance, 50);\r\n        }\r\n        //Profitable outcome 2: All ETH\r\n        if (randomCoin1 > 1 && randomCoin1 <= 4 &&\r\n            randomCoin2 > 1 && randomCoin2 <= 4 &&\r\n            randomCoin3 > 1 && randomCoin3 <= 4) {\r\n            ProfitsCalculated(gamblerBalance, 40);\r\n        }\r\n        //Profitable outcome 3: All USDT\r\n        if (randomCoin1 > 4 && randomCoin1 <= 9 &&\r\n            randomCoin2 > 4 && randomCoin2 <= 9 &&\r\n            randomCoin3 > 4 && randomCoin3 <= 9) {\r\n            ProfitsCalculated(gamblerBalance, 30);\r\n        }\r\n        //Profitable outcome 4: All XRP\r\n        if (randomCoin1 > 9 && randomCoin1 <= 16 &&\r\n            randomCoin2 > 9 && randomCoin2 <= 16 &&\r\n            randomCoin3 > 9 && randomCoin3 <= 16) {\r\n            ProfitsCalculated(gamblerBalance, 20);\r\n        }\r\n        //Profitable outcome 5: All LTC\r\n        if (randomCoin1 > 16 && randomCoin1 <= 25 &&\r\n            randomCoin2 > 16 && randomCoin2 <= 25 &&\r\n            randomCoin3 > 16 && randomCoin3 <= 25) {\r\n            ProfitsCalculated(gamblerBalance, 10);\r\n        }\r\n        \r\n        //Profitable outcome 6: coin1 = BTC, coin2 = ETH, coin3 = USDT\r\n        if (randomCoin1 == 1 && \r\n            randomCoin2 > 1 && randomCoin2 <= 4 &&\r\n            randomCoin3 > 4 && randomCoin3 <= 9) {\r\n            ProfitsCalculated(gamblerBalance, 5);\r\n        }\r\n        //Profitable outcome 7: coin1 = ETH, coin2 = USDT, coin3 = XRP\r\n        if (randomCoin1 > 1 && randomCoin1 <= 4 &&\r\n            randomCoin2 > 4 && randomCoin2 <= 9 &&\r\n            randomCoin3 > 9 && randomCoin3 <= 16) {\r\n            ProfitsCalculated(gamblerBalance, 3);\r\n        }\r\n        //Profitable outcome 8: coin1 = USDT, coin2 = XRP, coin3 = LTC\r\n        if (randomCoin1 > 4 && randomCoin1 <= 9 &&\r\n            randomCoin2 > 9 && randomCoin2 <= 16 &&\r\n            randomCoin3 > 16 && randomCoin3 <= 25) {\r\n            ProfitsCalculated(gamblerBalance, 2);\r\n        }\r\n        //Profitable outcome 9: coin1 = XRP, coin2 = LTC, coin3 = BTC\r\n        if (randomCoin1 > 9 && randomCoin1 <= 16 &&\r\n            randomCoin2 > 16 && randomCoin2 <= 25 &&\r\n            randomCoin3 == 1) {\r\n            ProfitsCalculated(gamblerBalance, 4);\r\n        }\r\n        //Profitable outcome 10: coin1 = LTC, coin2 = BTC, coin3 = ETH\r\n        if (randomCoin1 > 16 && randomCoin1 <= 25 &&\r\n            randomCoin2 == 1 &&\r\n            randomCoin3 > 1 && randomCoin3 <= 4) {\r\n            ProfitsCalculated(gamblerBalance, 4);\r\n        }\r\n        \r\n        //Unprofitable outcome: else\r\n        else { ProfitsCalculated(gamblerBalance, 0); }\r\n    }\r\n    \r\n    function CCMachineBalance() public view returns (uint) { return address(this).balance + 1; }\r\n    \r\n    function ProfitsCalculated(uint gamblerBalance, uint multiplier) public {\r\n        uint profits = gamblerBalance * multiplier;\r\n        bool profitable = true;\r\n        \r\n        if (CCMachineBalance() < profits) profits = CCMachineBalance();\r\n        payable(msg.sender).transfer(profits);\r\n        emit earnProfits(profitable, profits);\r\n    }\r\n        \r\n    function GetOutcomes() public view returns (uint[] memory) { return gamblers[msg.sender]; }\r\n\r\n}\r\n",
  "sourcePath": "C:/Users/kevin/CryptoCoinMachine/BC3_Kevin/PD-09/upgrades/Project/contracts/CryptoCoinMachine2.sol",
  "compiler": {
    "name": "solc",
    "version": "0.6.12+commit.27d51765.Emscripten.clang"
  },
  "schemaVersion": "3.3.3",
  "updatedAt": "2021-02-05T12:12:42.835Z",
  "networkType": "ethereum",
  "devdoc": {
    "kind": "dev",
    "methods": {},
    "version": 1
  },
  "userdoc": {
    "kind": "user",
    "methods": {},
    "version": 1
  }
}