{
  "contractName": "CryptoCoinMachine2",
  "abi": [
    {
      "inputs": [],
      "stateMutability": "payable",
      "type": "constructor"
    },
    {
      "anonymous": false,
      "inputs": [
        {
          "indexed": false,
          "internalType": "bool",
          "name": "profitable",
          "type": "bool"
        },
        {
          "indexed": false,
          "internalType": "uint256",
          "name": "profitAmount",
          "type": "uint256"
        }
      ],
      "name": "earnProfits",
      "type": "event"
    },
    {
      "inputs": [],
      "name": "oracle",
      "outputs": [
        {
          "internalType": "address",
          "name": "",
          "type": "address"
        }
      ],
      "stateMutability": "view",
      "type": "function"
    },
    {
      "inputs": [
        {
          "internalType": "uint256",
          "name": "",
          "type": "uint256"
        }
      ],
      "name": "outcomes",
      "outputs": [
        {
          "internalType": "uint256",
          "name": "",
          "type": "uint256"
        }
      ],
      "stateMutability": "view",
      "type": "function"
    },
    {
      "inputs": [],
      "name": "initialize",
      "outputs": [],
      "stateMutability": "payable",
      "type": "function"
    },
    {
      "inputs": [
        {
          "internalType": "address",
          "name": "_address",
          "type": "address"
        }
      ],
      "name": "SetOracle",
      "outputs": [],
      "stateMutability": "nonpayable",
      "type": "function"
    },
    {
      "inputs": [],
      "name": "GetOracle",
      "outputs": [
        {
          "internalType": "bytes32",
          "name": "",
          "type": "bytes32"
        }
      ],
      "stateMutability": "nonpayable",
      "type": "function"
    },
    {
      "inputs": [],
      "name": "OutcomeProcessed",
      "outputs": [],
      "stateMutability": "nonpayable",
      "type": "function"
    },
    {
      "inputs": [],
      "name": "CryptoSpinned",
      "outputs": [],
      "stateMutability": "payable",
      "type": "function"
    },
    {
      "inputs": [],
      "name": "CCMachineBalance",
      "outputs": [
        {
          "internalType": "uint256",
          "name": "",
          "type": "uint256"
        }
      ],
      "stateMutability": "view",
      "type": "function"
    },
    {
      "inputs": [
        {
          "internalType": "uint256",
          "name": "gamblerBalance",
          "type": "uint256"
        },
        {
          "internalType": "uint256",
          "name": "multiplier",
          "type": "uint256"
        }
      ],
      "name": "ProfitsCalculated",
      "outputs": [],
      "stateMutability": "nonpayable",
      "type": "function"
    },
    {
      "inputs": [],
      "name": "GetOutcomes",
      "outputs": [
        {
          "internalType": "uint256[]",
          "name": "",
          "type": "uint256[]"
        }
      ],
      "stateMutability": "view",
      "type": "function"
    },
    {
      "inputs": [],
      "name": "SelfDestruct",
      "outputs": [],
      "stateMutability": "payable",
      "type": "function"
    }
  ],
  "bytecode": "0x6080604052610df0806100136000396000f3fe60806040526004361061009c5760003560e01c806397a12edf1161006457806397a12edf146101b45780639d5cf50d146101df578063d3b5d1e01461020a578063dba5e9171461025b578063e7a896ab14610265578063eed2a1471461026f5761009c565b806319071866146100a1578063440dccdd146100b8578063542536f3146100fd5780637dc0d1d0146101695780638129fc1c146101aa575b600080fd5b3480156100ad57600080fd5b506100b66102be565b005b3480156100c457600080fd5b506100fb600480360360408110156100db57600080fd5b81019080803590602001909291908035906020019092919050505061031e565b005b34801561010957600080fd5b506101126103d3565b6040518080602001828103825283818151815260200191508051906020019060200280838360005b8381101561015557808201518184015260208101905061013a565b505050509050019250505060405180910390f35b34801561017557600080fd5b5061017e610468565b604051808273ffffffffffffffffffffffffffffffffffffffff16815260200191505060405180910390f35b6101b261048e565b005b3480156101c057600080fd5b506101c96105e1565b6040518082815260200191505060405180910390f35b3480156101eb57600080fd5b506101f4610692565b6040518082815260200191505060405180910390f35b34801561021657600080fd5b506102596004803603602081101561022d57600080fd5b81019080803573ffffffffffffffffffffffffffffffffffffffff16906020019092919050505061069d565b005b6102636106e1565b005b61026d6106fa565b005b34801561027b57600080fd5b506102a86004803603602081101561029257600080fd5b8101908080359060200190929190505050610b36565b6040518082815260200191505060405180910390f35b6102ce6102c9610b57565b610c06565b603360003373ffffffffffffffffffffffffffffffffffffffff1673ffffffffffffffffffffffffffffffffffffffff16815260200190815260200160002090600361031b929190610cae565b50565b6000818302905060006001905081610334610692565b101561034557610342610692565b91505b3373ffffffffffffffffffffffffffffffffffffffff166108fc839081150290604051600060405180830381858888f1935050505015801561038b573d6000803e3d6000fd5b507faf77cbf255034d71fff212065f182d9467222e243726aa604f50c8d161a21de881836040518083151581526020018281526020019250505060405180910390a150505050565b6060603360003373ffffffffffffffffffffffffffffffffffffffff1673ffffffffffffffffffffffffffffffffffffffff16815260200190815260200160002080548060200260200160405190810160405280929190818152602001828054801561045e57602002820191906000526020600020905b81548152602001906001019080831161044a575b5050505050905090565b603560009054906101000a900473ffffffffffffffffffffffffffffffffffffffff1681565b600060019054906101000a900460ff16806104ad57506104ac610c97565b5b806104c3575060008054906101000a900460ff16155b610518576040517f08c379a000000000000000000000000000000000000000000000000000000000815260040180806020018281038252602e815260200180610d8d602e913960400191505060405180910390fd5b60008060019054906101000a900460ff161590508015610568576001600060016101000a81548160ff02191690831515021790555060016000806101000a81548160ff0219169083151502179055505b73a7c81b03fafe4775c3d3826f11c1f36fa07b7530603660006101000a81548173ffffffffffffffffffffffffffffffffffffffff021916908373ffffffffffffffffffffffffffffffffffffffff16021790555080156105de5760008060016101000a81548160ff0219169083151502179055505b50565b600080603560009054906101000a900473ffffffffffffffffffffffffffffffffffffffff1690508073ffffffffffffffffffffffffffffffffffffffff1663b3101acb6040518163ffffffff1660e01b8152600401602060405180830381600087803b15801561065157600080fd5b505af1158015610665573d6000803e3d6000fd5b505050506040513d602081101561067b57600080fd5b810190808051906020019092919050505091505090565b600060014701905090565b80603560006101000a81548173ffffffffffffffffffffffffffffffffffffffff021916908373ffffffffffffffffffffffffffffffffffffffff16021790555050565b3373ffffffffffffffffffffffffffffffffffffffff16ff5b670de0b6b3a764000080341015610779576040517f08c379a00000000000000000000000000000000000000000000000000000000081526004018080602001828103825260188152602001807f4d696e696d756d207374616b652069732031206574686572000000000000000081525060200191505060405180910390fd5b60003490506000603460008154811061078e57fe5b90600052602060002001549050600060346001815481106107ab57fe5b90600052602060002001549050600060346002815481106107c857fe5b906000526020600020015490506034603360003373ffffffffffffffffffffffffffffffffffffffff1673ffffffffffffffffffffffffffffffffffffffff168152602001908152602001600020908054610824929190610cfb565b506001831480156108355750600182145b80156108415750600181145b156108525761085184603261031e565b5b600183118015610863575060048311155b801561086f5750600182115b801561087c575060048211155b80156108885750600181115b8015610895575060048111155b156108a6576108a584602861031e565b5b6004831180156108b7575060098311155b80156108c35750600482115b80156108d0575060098211155b80156108dc5750600481115b80156108e9575060098111155b156108fa576108f984601e61031e565b5b60098311801561090b575060108311155b80156109175750600982115b8015610924575060108211155b80156109305750600981115b801561093d575060108111155b1561094e5761094d84601461031e565b5b60108311801561095f575060198311155b801561096b5750601082115b8015610978575060198211155b80156109845750601081115b8015610991575060198111155b156109a2576109a184600a61031e565b5b6001831480156109b25750600182115b80156109bf575060048211155b80156109cb5750600481115b80156109d8575060098111155b156109e9576109e884600561031e565b5b6001831180156109fa575060048311155b8015610a065750600482115b8015610a13575060098211155b8015610a1f5750600981115b8015610a2c575060108111155b15610a3d57610a3c84600361031e565b5b600483118015610a4e575060098311155b8015610a5a5750600982115b8015610a67575060108211155b8015610a735750601081115b8015610a80575060198111155b15610a9157610a9084600261031e565b5b600983118015610aa2575060108311155b8015610aae5750601082115b8015610abb575060198211155b8015610ac75750600181145b15610ad857610ad784600461031e565b5b601083118015610ae9575060198311155b8015610af55750600182145b8015610b015750600181115b8015610b0e575060048111155b15610b2357610b1e84600461031e565b610b2f565b610b2e84600061031e565b5b5050505050565b60348181548110610b4357fe5b906000526020600020016000915090505481565b600080603560009054906101000a900473ffffffffffffffffffffffffffffffffffffffff1690508073ffffffffffffffffffffffffffffffffffffffff1663fd29ad0e6040518163ffffffff1660e01b815260040160206040518083038186803b158015610bc557600080fd5b505afa158015610bd9573d6000803e3d6000fd5b505050506040513d6020811015610bef57600080fd5b810190808051906020019092919050505091505090565b610c0e610d4d565b610c16610d4d565b610c1e610d4d565b60005b6003811015610c8c5760006127108681610c3757fe5b06905080848360038110610c4757fe5b6020020181815250506127108681610c5b57fe5b04955060178181610c6857fe5b06838360038110610c7557fe5b602002018181525050508080600101915050610c21565b508092505050919050565b6000803090506000813b9050600081149250505090565b828054828255906000526020600020908101928215610cea579160200282015b82811115610ce9578251825591602001919060010190610cce565b5b509050610cf79190610d6f565b5090565b828054828255906000526020600020908101928215610d3c5760005260206000209182015b82811115610d3b578254825591600101919060010190610d20565b5b509050610d499190610d6f565b5090565b6040518060600160405280600390602082028036833780820191505090505090565b5b80821115610d88576000816000905550600101610d70565b509056fe436f6e747261637420696e7374616e63652068617320616c7265616479206265656e20696e697469616c697a6564a26469706673582212204f606e015c50fab552c1430250277f51163c782b319d08f679ec70c159ef7b9f64736f6c634300060c0033",
  "immutableReferences": {},
  "source": "// SPDX-License-Identifier: MIT\r\n\r\npragma solidity ^0.6.0;\r\n\r\nimport \"@openzeppelin/upgrades-core/contracts/Initializable.sol\";\r\nimport \"./Oracle.sol\";\r\n\r\ncontract CryptoCoinMachine2 is Initializable {\r\n    mapping(address => uint[]) gamblers;\r\n    uint[] public outcomes;\r\n    address public oracle;\r\n    address private owner;\r\n\r\n    function initialize() public payable initializer {\r\n        owner = 0xa7C81b03Fafe4775c3d3826f11C1f36fA07b7530;\r\n    }\r\n\r\n    constructor() public payable { }\r\n\r\n    event earnProfits(bool profitable, uint profitAmount);\r\n\r\n    modifier sufficientStake(uint _stake) {\r\n        require(msg.value >= _stake,  \"Minimum stake is 1 ether\");\r\n        _;\r\n        }\r\n\r\n    function SetOracle(address _address) public { oracle = address(_address); }\r\n    function GetOracle() public returns (bytes32) {\r\n        Oracle orc = Oracle(oracle);\r\n        return orc.GetRandomNr();\r\n    }\r\n    function GetOracleNr() internal view returns (uint) {\r\n        Oracle orc = Oracle(oracle);\r\n        return orc.GetOracleNr();\r\n    }\r\n    function OracleNrProcessed(uint nr) internal returns (uint[3] memory) {\r\n        uint[3] memory array;\r\n        uint[3] memory randomNr;\r\n        \r\n        for (uint i = 0; i < 3; i++) {\r\n            uint digit = nr % 10000;\r\n            array[i] = digit;\r\n            nr /= 10000;\r\n            randomNr[i] = digit % 23;\r\n        }\r\n        return randomNr;\r\n    }\r\n    function OutcomeProcessed() public { gamblers[msg.sender] = OracleNrProcessed(GetOracleNr()); }\r\n    \r\n    function CryptoSpinned() sufficientStake(1 ether) public payable {\r\n        uint gamblerBalance = msg.value;\r\n        \r\n        uint randomCoin1 = outcomes[0];\r\n        uint randomCoin2 = outcomes[1];\r\n        uint randomCoin3 = outcomes[2];\r\n        \r\n        gamblers[msg.sender] = outcomes;\r\n        \r\n        //Profitable outcome 1: All BTC\r\n        if (randomCoin1 == 1 &&\r\n            randomCoin2 == 1 &&\r\n            randomCoin3 == 1) {\r\n            ProfitsCalculated(gamblerBalance, 50);\r\n        }\r\n        //Profitable outcome 2: All ETH\r\n        if (randomCoin1 > 1 && randomCoin1 <= 4 &&\r\n            randomCoin2 > 1 && randomCoin2 <= 4 &&\r\n            randomCoin3 > 1 && randomCoin3 <= 4) {\r\n            ProfitsCalculated(gamblerBalance, 40);\r\n        }\r\n        //Profitable outcome 3: All USDT\r\n        if (randomCoin1 > 4 && randomCoin1 <= 9 &&\r\n            randomCoin2 > 4 && randomCoin2 <= 9 &&\r\n            randomCoin3 > 4 && randomCoin3 <= 9) {\r\n            ProfitsCalculated(gamblerBalance, 30);\r\n        }\r\n        //Profitable outcome 4: All XRP\r\n        if (randomCoin1 > 9 && randomCoin1 <= 16 &&\r\n            randomCoin2 > 9 && randomCoin2 <= 16 &&\r\n            randomCoin3 > 9 && randomCoin3 <= 16) {\r\n            ProfitsCalculated(gamblerBalance, 20);\r\n        }\r\n        //Profitable outcome 5: All LTC\r\n        if (randomCoin1 > 16 && randomCoin1 <= 25 &&\r\n            randomCoin2 > 16 && randomCoin2 <= 25 &&\r\n            randomCoin3 > 16 && randomCoin3 <= 25) {\r\n            ProfitsCalculated(gamblerBalance, 10);\r\n        }\r\n        \r\n        //Profitable outcome 6: coin1 = BTC, coin2 = ETH, coin3 = USDT\r\n        if (randomCoin1 == 1 && \r\n            randomCoin2 > 1 && randomCoin2 <= 4 &&\r\n            randomCoin3 > 4 && randomCoin3 <= 9) {\r\n            ProfitsCalculated(gamblerBalance, 5);\r\n        }\r\n        //Profitable outcome 7: coin1 = ETH, coin2 = USDT, coin3 = XRP\r\n        if (randomCoin1 > 1 && randomCoin1 <= 4 &&\r\n            randomCoin2 > 4 && randomCoin2 <= 9 &&\r\n            randomCoin3 > 9 && randomCoin3 <= 16) {\r\n            ProfitsCalculated(gamblerBalance, 3);\r\n        }\r\n        //Profitable outcome 8: coin1 = USDT, coin2 = XRP, coin3 = LTC\r\n        if (randomCoin1 > 4 && randomCoin1 <= 9 &&\r\n            randomCoin2 > 9 && randomCoin2 <= 16 &&\r\n            randomCoin3 > 16 && randomCoin3 <= 25) {\r\n            ProfitsCalculated(gamblerBalance, 2);\r\n        }\r\n        //Profitable outcome 9: coin1 = XRP, coin2 = LTC, coin3 = BTC\r\n        if (randomCoin1 > 9 && randomCoin1 <= 16 &&\r\n            randomCoin2 > 16 && randomCoin2 <= 25 &&\r\n            randomCoin3 == 1) {\r\n            ProfitsCalculated(gamblerBalance, 4);\r\n        }\r\n        //Profitable outcome 10: coin1 = LTC, coin2 = BTC, coin3 = ETH\r\n        if (randomCoin1 > 16 && randomCoin1 <= 25 &&\r\n            randomCoin2 == 1 &&\r\n            randomCoin3 > 1 && randomCoin3 <= 4) {\r\n            ProfitsCalculated(gamblerBalance, 4);\r\n        }\r\n        \r\n        //Unprofitable outcome: else\r\n        else { ProfitsCalculated(gamblerBalance, 0); }\r\n    }\r\n    \r\n    function CCMachineBalance() public view returns (uint) { return address(this).balance + 1; }\r\n    \r\n    function ProfitsCalculated(uint gamblerBalance, uint multiplier) public {\r\n        uint profits = gamblerBalance * multiplier;\r\n        bool profitable = true;\r\n        \r\n        if (CCMachineBalance() < profits) profits = CCMachineBalance();\r\n        payable(msg.sender).transfer(profits);\r\n        emit earnProfits(profitable, profits);\r\n    }\r\n        \r\n    function GetOutcomes() public view returns (uint[] memory) { return gamblers[msg.sender]; }\r\n\r\n    function SelfDestruct() public payable { selfdestruct(msg.sender); }\r\n}\r\n",
  "sourcePath": "C:/Users/kevin/CryptoCoinMachine/BC3_Kevin/PD-09/upgrades/Project/contracts/CryptoCoinMachine2.sol",
  "compiler": {
    "name": "solc",
    "version": "0.6.12+commit.27d51765.Emscripten.clang"
  },
  "schemaVersion": "3.3.3",
  "updatedAt": "2021-02-05T09:47:24.180Z",
  "devdoc": {
    "kind": "dev",
    "methods": {},
    "version": 1
  },
  "userdoc": {
    "kind": "user",
    "methods": {},
    "version": 1
  }
}