{
  "contractName": "Oracle",
  "abi": [
    {
      "inputs": [],
      "stateMutability": "payable",
      "type": "constructor",
      "payable": true
    },
    {
      "inputs": [],
      "name": "randomResult",
      "outputs": [
        {
          "internalType": "uint256",
          "name": "",
          "type": "uint256"
        }
      ],
      "stateMutability": "view",
      "type": "function",
      "constant": true
    },
    {
      "inputs": [
        {
          "internalType": "bytes32",
          "name": "requestId",
          "type": "bytes32"
        },
        {
          "internalType": "uint256",
          "name": "randomness",
          "type": "uint256"
        }
      ],
      "name": "rawFulfillRandomness",
      "outputs": [],
      "stateMutability": "nonpayable",
      "type": "function"
    },
    {
      "inputs": [],
      "name": "GetRandomNr",
      "outputs": [
        {
          "internalType": "bytes32",
          "name": "requestId",
          "type": "bytes32"
        }
      ],
      "stateMutability": "nonpayable",
      "type": "function"
    },
    {
      "inputs": [],
      "name": "GetOracleNr",
      "outputs": [
        {
          "internalType": "uint256",
          "name": "",
          "type": "uint256"
        }
      ],
      "stateMutability": "view",
      "type": "function",
      "constant": true
    }
  ],
  "bytecode": "0x60c060405273b3dccb4cf7a26f6cf6b120cf5a73875b7bbc655b7301be23585060835e02b77ef475b0cc51aa1e07098173ffffffffffffffffffffffffffffffffffffffff1660a08173ffffffffffffffffffffffffffffffffffffffff1660601b815250508073ffffffffffffffffffffffffffffffffffffffff1660808173ffffffffffffffffffffffffffffffffffffffff1660601b8152505050507f6c3699283bda56ad74f6b855546325b68d482e983852a7a82979cc4807b641f460001b60018190555067016345785d8a000060028190555060805160601c60a05160601c6106aa6101096000398060eb528061036f5250806101bf528061033352506106aa6000f3fe608060405234801561001057600080fd5b506004361061004c5760003560e01c806342619f661461005157806394985ddd1461006f578063b3101acb146100a7578063fd29ad0e146100c5575b600080fd5b6100596100e3565b6040518082815260200191505060405180910390f35b6100a56004803603604081101561008557600080fd5b8101908080359060200190929190803590602001909291905050506100e9565b005b6100af6101b8565b6040518082815260200191505060405180910390f35b6100cd61031a565b6040518082815260200191505060405180910390f35b60035481565b7f000000000000000000000000000000000000000000000000000000000000000073ffffffffffffffffffffffffffffffffffffffff163373ffffffffffffffffffffffffffffffffffffffff16146101aa576040517f08c379a000000000000000000000000000000000000000000000000000000000815260040180806020018281038252601f8152602001807f4f6e6c7920565246436f6f7264696e61746f722063616e2066756c66696c6c0081525060200191505060405180910390fd5b6101b48282610324565b5050565b60006002547f000000000000000000000000000000000000000000000000000000000000000073ffffffffffffffffffffffffffffffffffffffff166370a08231306040518263ffffffff1660e01b8152600401808273ffffffffffffffffffffffffffffffffffffffff16815260200191505060206040518083038186803b15801561024457600080fd5b505afa158015610258573d6000803e3d6000fd5b505050506040513d602081101561026e57600080fd5b810190808051906020019092919050505010156102d6576040517f08c379a000000000000000000000000000000000000000000000000000000000815260040180806020018281038252602b81526020018061064a602b913960400191505060405180910390fd5b60004340604051602001808281526020019150506040516020818303038152906040528051906020012060001c90506103146001546002548361032f565b91505090565b6000600354905090565b806003819055505050565b60007f000000000000000000000000000000000000000000000000000000000000000073ffffffffffffffffffffffffffffffffffffffff16634000aea07f000000000000000000000000000000000000000000000000000000000000000085878660405160200180838152602001828152602001925050506040516020818303038152906040526040518463ffffffff1660e01b8152600401808473ffffffffffffffffffffffffffffffffffffffff16815260200183815260200180602001828103825283818151815260200191508051906020019080838360005b8381101561042857808201518184015260208101905061040d565b50505050905090810190601f1680156104555780820380516001836020036101000a031916815260200191505b50945050505050602060405180830381600087803b15801561047657600080fd5b505af115801561048a573d6000803e3d6000fd5b505050506040513d60208110156104a057600080fd5b81019080805190602001909291905050505060006104d28584306000808a815260200190815260200160002054610524565b90506104fa60016000808881526020019081526020016000205461058890919063ffffffff16565b6000808781526020019081526020016000208190555061051a8582610610565b9150509392505050565b600084848484604051602001808581526020018481526020018373ffffffffffffffffffffffffffffffffffffffff1681526020018281526020019450505050506040516020818303038152906040528051906020012060001c9050949350505050565b600080828401905083811015610606576040517f08c379a000000000000000000000000000000000000000000000000000000000815260040180806020018281038252601b8152602001807f536166654d6174683a206164646974696f6e206f766572666c6f77000000000081525060200191505060405180910390fd5b8091505092915050565b6000828260405160200180838152602001828152602001925050506040516020818303038152906040528051906020012090509291505056fe4e6f7420656e6f756768204c494e4b202d2066696c6c20636f6e7472616374207769746820666175636574a2646970667358221220d30965bfd3df51652c6b20852a7458ddec93b38f286ee4259d61798ec4033b3164736f6c634300060c0033",
  "immutableReferences": {
    "169": [
      {
        "length": 32,
        "start": 447
      },
      {
        "length": 32,
        "start": 819
      }
    ],
    "171": [
      {
        "length": 32,
        "start": 235
      },
      {
        "length": 32,
        "start": 879
      }
    ]
  },
  "source": "// SPDX-License-Identifier: MIT\r\n\r\npragma solidity ^0.6.0;\r\n\r\nimport \"@chainlink/contracts/src/v0.6/VRFConsumerBase.sol\";\r\n\r\ncontract Oracle is VRFConsumerBase {\r\n\r\n    bytes32 internal keyHash;\r\n    uint256 internal fee;\r\n    uint256 public randomResult;\r\n\r\n    // See website: https://blog.chain.link/random-number-generation-solidity/\r\n\r\n    constructor()\r\n        VRFConsumerBase(\r\n            0xb3dCcb4Cf7a26f6cf6B120Cf5A73875B7BBc655B, // VRF Coordinator\r\n            0x01BE23585060835E02B77ef475b0Cc51aA1e0709  // LINK Token Rinkeby\r\n        ) public payable\r\n    {\r\n        keyHash = 0x6c3699283bda56ad74f6b855546325b68d482e983852a7a82979cc4807b641f4;\r\n        fee = 0.1 * 10 ** 18; // 0.1 LINK\r\n    }\r\n\r\n    function GetRandomNr() public returns (bytes32 requestId) {\r\n        require(LINK.balanceOf(address(this)) >= fee, \"Not enough LINK - fill contract with faucet\");\r\n        uint256 seed = uint256(keccak256(abi.encode(blockhash(block.number))));\r\n        return requestRandomness(keyHash, fee, seed);\r\n    }\r\n\r\n    function GetOracleNr() public view returns (uint256){\r\n        return randomResult;\r\n    }\r\n\r\n    /**\r\n     * Callback function used by VRF Coordinator\r\n     */\r\n    function fulfillRandomness(bytes32 requestId, uint256 randomness) internal override {\r\n        randomResult = randomness;\r\n    }\r\n}",
  "sourcePath": "C:/Users/kevin/CryptoCoinMachine/BC3_Kevin/PD-09/verify-etherscan/contracts/Oracle.sol",
  "compiler": {
    "name": "solc",
    "version": "0.6.12+commit.27d51765.Emscripten.clang"
  },
  "schemaVersion": "3.3.3",
  "updatedAt": "2021-02-07T11:42:20.908Z",
  "networkType": "ethereum",
  "devdoc": {
    "kind": "dev",
    "methods": {},
    "version": 1
  },
  "userdoc": {
    "kind": "user",
    "methods": {},
    "version": 1
  }
}