{
  "contractName": "CryptoCoinMachine",
  "abi": [
    {
      "inputs": [],
      "stateMutability": "payable",
      "type": "constructor",
      "payable": true
    },
    {
      "anonymous": false,
      "inputs": [
        {
          "indexed": true,
          "internalType": "address",
          "name": "previousOwner",
          "type": "address"
        },
        {
          "indexed": true,
          "internalType": "address",
          "name": "newOwner",
          "type": "address"
        }
      ],
      "name": "OwnershipTransferred",
      "type": "event"
    },
    {
      "anonymous": false,
      "inputs": [
        {
          "indexed": false,
          "internalType": "bool",
          "name": "profitable",
          "type": "bool"
        },
        {
          "indexed": false,
          "internalType": "uint256",
          "name": "profitAmount",
          "type": "uint256"
        }
      ],
      "name": "earnProfits",
      "type": "event"
    },
    {
      "inputs": [],
      "name": "oracle",
      "outputs": [
        {
          "internalType": "address",
          "name": "",
          "type": "address"
        }
      ],
      "stateMutability": "view",
      "type": "function",
      "constant": true
    },
    {
      "inputs": [
        {
          "internalType": "uint256",
          "name": "",
          "type": "uint256"
        }
      ],
      "name": "outcomes",
      "outputs": [
        {
          "internalType": "uint256",
          "name": "",
          "type": "uint256"
        }
      ],
      "stateMutability": "view",
      "type": "function",
      "constant": true
    },
    {
      "inputs": [],
      "name": "owner",
      "outputs": [
        {
          "internalType": "address",
          "name": "",
          "type": "address"
        }
      ],
      "stateMutability": "view",
      "type": "function",
      "constant": true
    },
    {
      "inputs": [],
      "name": "renounceOwnership",
      "outputs": [],
      "stateMutability": "nonpayable",
      "type": "function"
    },
    {
      "inputs": [
        {
          "internalType": "address",
          "name": "newOwner",
          "type": "address"
        }
      ],
      "name": "transferOwnership",
      "outputs": [],
      "stateMutability": "nonpayable",
      "type": "function"
    },
    {
      "inputs": [
        {
          "internalType": "address",
          "name": "_address",
          "type": "address"
        }
      ],
      "name": "SetOracle",
      "outputs": [],
      "stateMutability": "nonpayable",
      "type": "function"
    },
    {
      "inputs": [],
      "name": "GetOracle",
      "outputs": [
        {
          "internalType": "bytes32",
          "name": "",
          "type": "bytes32"
        }
      ],
      "stateMutability": "nonpayable",
      "type": "function"
    },
    {
      "inputs": [],
      "name": "OutcomeProcessed",
      "outputs": [],
      "stateMutability": "nonpayable",
      "type": "function"
    },
    {
      "inputs": [],
      "name": "CryptoSpinned",
      "outputs": [],
      "stateMutability": "payable",
      "type": "function",
      "payable": true
    },
    {
      "inputs": [],
      "name": "CCMachineBalance",
      "outputs": [
        {
          "internalType": "uint256",
          "name": "",
          "type": "uint256"
        }
      ],
      "stateMutability": "view",
      "type": "function",
      "constant": true
    },
    {
      "inputs": [
        {
          "internalType": "uint256",
          "name": "gamblerBalance",
          "type": "uint256"
        },
        {
          "internalType": "uint256",
          "name": "multiplier",
          "type": "uint256"
        }
      ],
      "name": "ProfitsCalculated",
      "outputs": [],
      "stateMutability": "nonpayable",
      "type": "function"
    },
    {
      "inputs": [],
      "name": "GetOutcomes",
      "outputs": [
        {
          "internalType": "uint256[]",
          "name": "",
          "type": "uint256[]"
        }
      ],
      "stateMutability": "view",
      "type": "function",
      "constant": true
    },
    {
      "inputs": [],
      "name": "SelfDestruct",
      "outputs": [],
      "stateMutability": "payable",
      "type": "function",
      "payable": true
    }
  ],
  "bytecode": "0x608060405260006100146100b760201b60201c565b9050806000806101000a81548173ffffffffffffffffffffffffffffffffffffffff021916908373ffffffffffffffffffffffffffffffffffffffff1602179055508073ffffffffffffffffffffffffffffffffffffffff16600073ffffffffffffffffffffffffffffffffffffffff167f8be0079c531659141344cd1fd0a4f28419497f9722a3daafe3b4186f6b6457e060405160405180910390a3506100bf565b600033905090565b61121b806100ce6000396000f3fe6080604052600436106100c25760003560e01c806397a12edf1161007f578063dba5e91711610059578063dba5e917146102cf578063e7a896ab146102d9578063eed2a147146102e3578063f2fde38b14610332576100c2565b806397a12edf146102285780639d5cf50d14610253578063d3b5d1e01461027e576100c2565b806319071866146100c7578063440dccdd146100de578063542536f314610123578063715018a61461018f5780637dc0d1d0146101a65780638da5cb5b146101e7575b600080fd5b3480156100d357600080fd5b506100dc610383565b005b3480156100ea57600080fd5b506101216004803603604081101561010157600080fd5b8101908080359060200190929190803590602001909291905050506103f6565b005b34801561012f57600080fd5b506101386104ab565b6040518080602001828103825283818151815260200191508051906020019060200280838360005b8381101561017b578082015181840152602081019050610160565b505050509050019250505060405180910390f35b34801561019b57600080fd5b506101a4610540565b005b3480156101b257600080fd5b506101bb6106c6565b604051808273ffffffffffffffffffffffffffffffffffffffff16815260200191505060405180910390f35b3480156101f357600080fd5b506101fc6106ec565b604051808273ffffffffffffffffffffffffffffffffffffffff16815260200191505060405180910390f35b34801561023457600080fd5b5061023d610715565b6040518082815260200191505060405180910390f35b34801561025f57600080fd5b506102686107c6565b6040518082815260200191505060405180910390f35b34801561028a57600080fd5b506102cd600480360360208110156102a157600080fd5b81019080803573ffffffffffffffffffffffffffffffffffffffff1690602001909291905050506107ce565b005b6102d76108da565b005b6102e16109bb565b005b3480156102ef57600080fd5b5061031c6004803603602081101561030657600080fd5b8101908080359060200190929190505050610d8b565b6040518082815260200191505060405180910390f35b34801561033e57600080fd5b506103816004803603602081101561035557600080fd5b81019080803573ffffffffffffffffffffffffffffffffffffffff169060200190929190505050610da3565b005b61039361038e610fae565b61105d565b60029060036103a39291906110f6565b506002600160003373ffffffffffffffffffffffffffffffffffffffff1673ffffffffffffffffffffffffffffffffffffffff1681526020019081526020016000209060036103f3929190611136565b50565b600081830290506000600190508161040c6107c6565b101561041d5761041a6107c6565b91505b3373ffffffffffffffffffffffffffffffffffffffff166108fc839081150290604051600060405180830381858888f19350505050158015610463573d6000803e3d6000fd5b507faf77cbf255034d71fff212065f182d9467222e243726aa604f50c8d161a21de881836040518083151581526020018281526020019250505060405180910390a150505050565b6060600160003373ffffffffffffffffffffffffffffffffffffffff1673ffffffffffffffffffffffffffffffffffffffff16815260200190815260200160002080548060200260200160405190810160405280929190818152602001828054801561053657602002820191906000526020600020905b815481526020019060010190808311610522575b5050505050905090565b6105486110ee565b73ffffffffffffffffffffffffffffffffffffffff1660008054906101000a900473ffffffffffffffffffffffffffffffffffffffff1673ffffffffffffffffffffffffffffffffffffffff1614610608576040517f08c379a00000000000000000000000000000000000000000000000000000000081526004018080602001828103825260208152602001807f4f776e61626c653a2063616c6c6572206973206e6f7420746865206f776e657281525060200191505060405180910390fd5b600073ffffffffffffffffffffffffffffffffffffffff1660008054906101000a900473ffffffffffffffffffffffffffffffffffffffff1673ffffffffffffffffffffffffffffffffffffffff167f8be0079c531659141344cd1fd0a4f28419497f9722a3daafe3b4186f6b6457e060405160405180910390a360008060006101000a81548173ffffffffffffffffffffffffffffffffffffffff021916908373ffffffffffffffffffffffffffffffffffffffff160217905550565b600560009054906101000a900473ffffffffffffffffffffffffffffffffffffffff1681565b60008060009054906101000a900473ffffffffffffffffffffffffffffffffffffffff16905090565b600080600560009054906101000a900473ffffffffffffffffffffffffffffffffffffffff1690508073ffffffffffffffffffffffffffffffffffffffff1663b3101acb6040518163ffffffff1660e01b8152600401602060405180830381600087803b15801561078557600080fd5b505af1158015610799573d6000803e3d6000fd5b505050506040513d60208110156107af57600080fd5b810190808051906020019092919050505091505090565b600047905090565b6107d66110ee565b73ffffffffffffffffffffffffffffffffffffffff1660008054906101000a900473ffffffffffffffffffffffffffffffffffffffff1673ffffffffffffffffffffffffffffffffffffffff1614610896576040517f08c379a00000000000000000000000000000000000000000000000000000000081526004018080602001828103825260208152602001807f4f776e61626c653a2063616c6c6572206973206e6f7420746865206f776e657281525060200191505060405180910390fd5b80600560006101000a81548173ffffffffffffffffffffffffffffffffffffffff021916908373ffffffffffffffffffffffffffffffffffffffff16021790555050565b6108e26110ee565b73ffffffffffffffffffffffffffffffffffffffff1660008054906101000a900473ffffffffffffffffffffffffffffffffffffffff1673ffffffffffffffffffffffffffffffffffffffff16146109a2576040517f08c379a00000000000000000000000000000000000000000000000000000000081526004018080602001828103825260208152602001807f4f776e61626c653a2063616c6c6572206973206e6f7420746865206f776e657281525060200191505060405180910390fd5b3373ffffffffffffffffffffffffffffffffffffffff16ff5b670de0b6b3a764000080341015610a3a576040517f08c379a00000000000000000000000000000000000000000000000000000000081526004018080602001828103825260188152602001807f4d696e696d756d207374616b652069732031206574686572000000000000000081525060200191505060405180910390fd5b600034905060006002600060038110610a4f57fe5b0154905060006002600160038110610a6357fe5b01549050600060028060038110610a7657fe5b01549050600183148015610a8a5750600182145b8015610a965750600181145b15610aa757610aa68460326103f6565b5b600183118015610ab8575060048311155b8015610ac45750600182115b8015610ad1575060048211155b8015610add5750600181115b8015610aea575060048111155b15610afb57610afa8460286103f6565b5b600483118015610b0c575060098311155b8015610b185750600482115b8015610b25575060098211155b8015610b315750600481115b8015610b3e575060098111155b15610b4f57610b4e84601e6103f6565b5b600983118015610b60575060108311155b8015610b6c5750600982115b8015610b79575060108211155b8015610b855750600981115b8015610b92575060108111155b15610ba357610ba28460146103f6565b5b601083118015610bb4575060198311155b8015610bc05750601082115b8015610bcd575060198211155b8015610bd95750601081115b8015610be6575060198111155b15610bf757610bf684600a6103f6565b5b600183148015610c075750600182115b8015610c14575060048211155b8015610c205750600481115b8015610c2d575060098111155b15610c3e57610c3d8460056103f6565b5b600183118015610c4f575060048311155b8015610c5b5750600482115b8015610c68575060098211155b8015610c745750600981115b8015610c81575060108111155b15610c9257610c918460036103f6565b5b600483118015610ca3575060098311155b8015610caf5750600982115b8015610cbc575060108211155b8015610cc85750601081115b8015610cd5575060198111155b15610ce657610ce58460026103f6565b5b600983118015610cf7575060108311155b8015610d035750601082115b8015610d10575060198211155b8015610d1c5750600181145b15610d2d57610d2c8460046103f6565b5b601083118015610d3e575060198311155b8015610d4a5750600182145b8015610d565750600181115b8015610d63575060048111155b15610d7857610d738460046103f6565b610d84565b610d838460006103f6565b5b5050505050565b60028160038110610d9857fe5b016000915090505481565b610dab6110ee565b73ffffffffffffffffffffffffffffffffffffffff1660008054906101000a900473ffffffffffffffffffffffffffffffffffffffff1673ffffffffffffffffffffffffffffffffffffffff1614610e6b576040517f08c379a00000000000000000000000000000000000000000000000000000000081526004018080602001828103825260208152602001807f4f776e61626c653a2063616c6c6572206973206e6f7420746865206f776e657281525060200191505060405180910390fd5b600073ffffffffffffffffffffffffffffffffffffffff168173ffffffffffffffffffffffffffffffffffffffff161415610ef1576040517f08c379a00000000000000000000000000000000000000000000000000000000081526004018080602001828103825260268152602001806111c06026913960400191505060405180910390fd5b8073ffffffffffffffffffffffffffffffffffffffff1660008054906101000a900473ffffffffffffffffffffffffffffffffffffffff1673ffffffffffffffffffffffffffffffffffffffff167f8be0079c531659141344cd1fd0a4f28419497f9722a3daafe3b4186f6b6457e060405160405180910390a3806000806101000a81548173ffffffffffffffffffffffffffffffffffffffff021916908373ffffffffffffffffffffffffffffffffffffffff16021790555050565b600080600560009054906101000a900473ffffffffffffffffffffffffffffffffffffffff1690508073ffffffffffffffffffffffffffffffffffffffff1663fd29ad0e6040518163ffffffff1660e01b815260040160206040518083038186803b15801561101c57600080fd5b505afa158015611030573d6000803e3d6000fd5b505050506040513d602081101561104657600080fd5b810190808051906020019092919050505091505090565b611065611180565b61106d611180565b611075611180565b60005b60038110156110e3576000612710868161108e57fe5b0690508084836003811061109e57fe5b60200201818152505061271086816110b257fe5b049550601781816110bf57fe5b068383600381106110cc57fe5b602002018181525050508080600101915050611078565b508092505050919050565b600033905090565b8260038101928215611125579160200282015b82811115611124578251825591602001919060010190611109565b5b50905061113291906111a2565b5090565b82805482825590600052602060002090810192821561116f579182015b8281111561116e578254825591600101919060010190611153565b5b50905061117c91906111a2565b5090565b6040518060600160405280600390602082028036833780820191505090505090565b5b808211156111bb5760008160009055506001016111a3565b509056fe4f776e61626c653a206e6577206f776e657220697320746865207a65726f2061646472657373a264697066735822122073b4dbc712ba5489f4e6655bd1345682f299b9e89657e8255d334d258350104464736f6c634300060c0033",
  "immutableReferences": {},
  "source": "// SPDX-License-Identifier: MIT\r\n\r\npragma solidity ^0.6.0;\r\n\r\nimport \"@openzeppelin/contracts/access/Ownable.sol\";\r\nimport \"./Oracle.sol\";\r\n\r\ncontract CryptoCoinMachine is Ownable {\r\n    mapping(address => uint[]) gamblers;\r\n    uint[3] public outcomes;\r\n    address public oracle;\r\n\r\n    constructor() public payable Ownable() { }\r\n\r\n    event earnProfits(bool profitable, uint profitAmount);\r\n\r\n    modifier sufficientStake(uint _stake) {\r\n        require(msg.value >= _stake,  \"Minimum stake is 1 ether\");\r\n        _;\r\n        }\r\n\r\n    function SetOracle(address _address) public onlyOwner { oracle = address(_address); }\r\n    function GetOracle() public returns (bytes32) {\r\n        Oracle orc = Oracle(oracle);\r\n        return orc.GetRandomNr();\r\n    }\r\n    function GetOracleNr() internal view returns (uint) {\r\n        Oracle orc = Oracle(oracle);\r\n        return orc.GetOracleNr();\r\n    }\r\n    function OracleNrProcessed(uint nr) internal returns (uint[3] memory) {\r\n        uint[3] memory array;\r\n        uint[3] memory randomNr;\r\n        \r\n        for (uint i = 0; i < 3; i++) {\r\n            uint digit = nr % 10000;\r\n            array[i] = digit;\r\n            nr /= 10000;\r\n            randomNr[i] = digit % 23;\r\n        }\r\n        return randomNr;\r\n    }\r\n    function OutcomeProcessed() public {\r\n        outcomes = OracleNrProcessed(GetOracleNr()); \r\n        gamblers[msg.sender] = outcomes; }\r\n    \r\n    function CryptoSpinned() sufficientStake(1 ether) public payable {\r\n        uint gamblerBalance = msg.value;\r\n        \r\n        uint randomCoin1 = outcomes[0];\r\n        uint randomCoin2 = outcomes[1];\r\n        uint randomCoin3 = outcomes[2];\r\n        \r\n        //Profitable outcome 1: All BTC\r\n        if (randomCoin1 == 1 &&\r\n            randomCoin2 == 1 &&\r\n            randomCoin3 == 1) {\r\n            ProfitsCalculated(gamblerBalance, 50);\r\n        }\r\n        //Profitable outcome 2: All ETH\r\n        if (randomCoin1 > 1 && randomCoin1 <= 4 &&\r\n            randomCoin2 > 1 && randomCoin2 <= 4 &&\r\n            randomCoin3 > 1 && randomCoin3 <= 4) {\r\n            ProfitsCalculated(gamblerBalance, 40);\r\n        }\r\n        //Profitable outcome 3: All USDT\r\n        if (randomCoin1 > 4 && randomCoin1 <= 9 &&\r\n            randomCoin2 > 4 && randomCoin2 <= 9 &&\r\n            randomCoin3 > 4 && randomCoin3 <= 9) {\r\n            ProfitsCalculated(gamblerBalance, 30);\r\n        }\r\n        //Profitable outcome 4: All XRP\r\n        if (randomCoin1 > 9 && randomCoin1 <= 16 &&\r\n            randomCoin2 > 9 && randomCoin2 <= 16 &&\r\n            randomCoin3 > 9 && randomCoin3 <= 16) {\r\n            ProfitsCalculated(gamblerBalance, 20);\r\n        }\r\n        //Profitable outcome 5: All LTC\r\n        if (randomCoin1 > 16 && randomCoin1 <= 25 &&\r\n            randomCoin2 > 16 && randomCoin2 <= 25 &&\r\n            randomCoin3 > 16 && randomCoin3 <= 25) {\r\n            ProfitsCalculated(gamblerBalance, 10);\r\n        }\r\n        \r\n        //Profitable outcome 6: coin1 = BTC, coin2 = ETH, coin3 = USDT\r\n        if (randomCoin1 == 1 && \r\n            randomCoin2 > 1 && randomCoin2 <= 4 &&\r\n            randomCoin3 > 4 && randomCoin3 <= 9) {\r\n            ProfitsCalculated(gamblerBalance, 5);\r\n        }\r\n        //Profitable outcome 7: coin1 = ETH, coin2 = USDT, coin3 = XRP\r\n        if (randomCoin1 > 1 && randomCoin1 <= 4 &&\r\n            randomCoin2 > 4 && randomCoin2 <= 9 &&\r\n            randomCoin3 > 9 && randomCoin3 <= 16) {\r\n            ProfitsCalculated(gamblerBalance, 3);\r\n        }\r\n        //Profitable outcome 8: coin1 = USDT, coin2 = XRP, coin3 = LTC\r\n        if (randomCoin1 > 4 && randomCoin1 <= 9 &&\r\n            randomCoin2 > 9 && randomCoin2 <= 16 &&\r\n            randomCoin3 > 16 && randomCoin3 <= 25) {\r\n            ProfitsCalculated(gamblerBalance, 2);\r\n        }\r\n        //Profitable outcome 9: coin1 = XRP, coin2 = LTC, coin3 = BTC\r\n        if (randomCoin1 > 9 && randomCoin1 <= 16 &&\r\n            randomCoin2 > 16 && randomCoin2 <= 25 &&\r\n            randomCoin3 == 1) {\r\n            ProfitsCalculated(gamblerBalance, 4);\r\n        }\r\n        //Profitable outcome 10: coin1 = LTC, coin2 = BTC, coin3 = ETH\r\n        if (randomCoin1 > 16 && randomCoin1 <= 25 &&\r\n            randomCoin2 == 1 &&\r\n            randomCoin3 > 1 && randomCoin3 <= 4) {\r\n            ProfitsCalculated(gamblerBalance, 4);\r\n        }\r\n        \r\n        //Unprofitable outcome: else\r\n        else { ProfitsCalculated(gamblerBalance, 0); }\r\n    }\r\n    \r\n    function CCMachineBalance() public view returns (uint) { return address(this).balance; }\r\n    \r\n    function ProfitsCalculated(uint gamblerBalance, uint multiplier) public {\r\n        uint profits = gamblerBalance * multiplier;\r\n        bool profitable = true;\r\n        \r\n        if (CCMachineBalance() < profits) profits = CCMachineBalance();\r\n        payable(msg.sender).transfer(profits);\r\n        emit earnProfits(profitable, profits);\r\n    }\r\n        \r\n    function GetOutcomes() public view returns (uint[] memory) { return gamblers[msg.sender]; }\r\n\r\n    function SelfDestruct() public payable onlyOwner { selfdestruct(msg.sender); }\r\n}\r\n",
  "sourcePath": "C:/Users/kevin/CryptoCoinMachine/BC3_Kevin/Project_onderdelen_samengevoegd/contracts/CryptoCoinMachine.sol",
  "compiler": {
    "name": "solc",
    "version": "0.6.12+commit.27d51765.Emscripten.clang"
  },
  "schemaVersion": "3.3.3",
  "updatedAt": "2021-02-07T13:07:56.849Z",
  "networkType": "ethereum",
  "devdoc": {
    "kind": "dev",
    "methods": {
      "owner()": {
        "details": "Returns the address of the current owner."
      },
      "renounceOwnership()": {
        "details": "Leaves the contract without owner. It will not be possible to call `onlyOwner` functions anymore. Can only be called by the current owner. NOTE: Renouncing ownership will leave the contract without an owner, thereby removing any functionality that is only available to the owner."
      },
      "transferOwnership(address)": {
        "details": "Transfers ownership of the contract to a new account (`newOwner`). Can only be called by the current owner."
      }
    },
    "version": 1
  },
  "userdoc": {
    "kind": "user",
    "methods": {},
    "version": 1
  }
}